:020000040800F2
:1000000000000120A9200008AD060008AF06000886
:10001000B1060008B3060008B5060008000000009D
:10002000000000000000000000000000B70600080B
:10003000B906000800000000BB060008BD06000865
:10004000F9200008F9200008F9200008F92000082C
:10005000F9200008F9200008F9200008F92000081C
:10006000F9200008F9200008F9200008F92000080C
:10007000F9200008F9200008F9200008F9200008FC
:10008000F9200008F9200008F9200008F9200008EC
:10009000C5060008D5060008F9200008F920000868
:1000A000F9200008F9200008F9200008F9200008CC
:1000B000F92000080000000000000000F9200008FE
:1000C000F92000080000000000000000F9200008EE
:1000D00000000000F9200008F920000800000000DE
:1000E000F9200008F92000080000000000000000CE
:1000F0000000000000000000000000000000000000
:10010000000000000000000000000000F9200008CE
:100110000000000000000000F9200008F92000089D
:10012000F9200008F9200008F9200008F92000084B
:10013000F92000080000000000000000000000009E
:10014000F9200008F9200008F9200008F92000082B
:10015000F9200008F9200008F9200008F92000081B
:10016000F9200008F9200008F9200008000000002C
:10017000F9200008F920000800000000000000003D
:10018000F9200008F9200008F9200008000000000C
:1001900010B5054C237833B9044B13B10448AFF3C1
:1001A00000800123237010BD10000020000000001B
:1001B0005421000808B5034B1BB103490348AFF3B2
:1001C000008008BD00000000140000205421000839
:1001D00008B50E480E4B036005234360002383607F
:1001E000C3604FF4402202614FF4801242610376F3
:1001F000437683760122C2760377437700F018FBBB
:1002000000B908BD00F0E4F8FBE700BF30000020B3
:100210000064004000B589B0002303930493059364
:100220000693079302681C4B9A4202D009B05DF80E
:1002300004FB03F5D6339A6D42F000729A659A6D0D
:1002400002F000720192019ADA6C42F00102DA6463
:10025000DB6C03F001030293029B4FF4C053039342
:1002600002230493032306930923079303A94FF062
:10027000904000F0EFFE00221146142000F06EFEC8
:10028000142000F07BFE00221146152000F066FECF
:10029000152000F073FEC9E7006400402DE9F0412D
:1002A00088B00446884616461F460E9D00F024FA84
:1002B000164B1860CDF8088000220592049206972C
:1002C0008DF81C20204600F0F4FB68B929460F4841
:1002D00000F018FA0028F5D0204600F0DBFD019967
:1002E000204600F0C0FBEDE701AB324602A92046F4
:1002F00000F044FB10B908B0BDE8F081204600F0E2
:10030000C9FD0199204600F0AEFBF4E72C00002067
:10031000BFF34F8F0549CA6802F4E062044B1343F0
:10032000CB60BFF34F8F00BFFDE700BF00ED00E0E3
:100330000400FA0510B58AB0044600230193029325
:1003400001AB03AA00F0CEFB40B9039BA52B0BD059
:10035000D22B16D0D32B1AD00AB010BD204600F0F5
:1003600099FD00F035F8F0E7079A022AF0D19DF8E0
:100370000420FF2AECD19DF80520002AE8D1FFF7E0
:10038000C7FF079A012AE5D100F0B0F8E4E7079B20
:10039000012BE1D100F096F8DEE708B50121FFF767
:1003A000C9FF08BD08B50021FFF7C4FF08BD000064
:1003B00082B0064BDA6C42F00102DA64DB6C03F0C7
:1003C00001030193019B02B0704700BF001002407F
:1003D00072B6FEE700B597B04422002105A801F0EF
:1003E0008CFE0023009301930293039304934FF434
:1003F000007000F00FFF20BB012305934FF4A023F2
:10040000069302230F9303221092052211922022B9
:100410001292072213921493159305A800F0E4FF9B
:1004200088B90F23009303230193002302930393BE
:1004300004930421684601F00DFB30B917B05DF854
:1004400004FBFFF7C5FFFFF7C3FFFFF7C1FF000085
:1004500000B585B000F0CAF9FFF7BCFFFFF7A8FFB1
:10046000FFF7B6FE00F0B0F80BE000208DF80F00AB
:100470001E23009301230DF10F02D4210948FFF739
:100480000DFF00F04FF84FF4FA71074800F03AF909
:100490000028F6D000F00AF80028E6D000F00CF8AA
:1004A000E4E700BF3000002058000020014B18781E
:1004B000704700BF62000020014B1878704700BFF2
:1004C0006100002008B5FFF7F7FF10B1014B0122D2
:1004D0001A7008BD62000020024B1B780BB9024B5A
:1004E00018707047620000206100002008B50B4BB7
:1004F0001B7803B108BDFFF7DFFF094BA3FB002307
:10050000C21A03EB52039B08C3EBC303C01AC0B269
:100510000130C0B2FFF7E0FFECE700BF620000204F
:100520002549922408B5224B1B788BB1214B1A78B0
:10053000214B1A70204B1B78013B012098404FF44F
:100540007F4180B200F0FAF81C4800F01BF908BDAA
:10055000184B1B78CBB94FF47A71194800F0D2F8D8
:100560000028E7D0144B1B78062B08D9154AFF2129
:100570001170144A127813440F4A1370DAE7012BF2
:10058000F7D8104A01211170F3E740F6C4110C4866
:1005900000F0B8F80028CDD0074B1A78054B1B782F
:1005A0009A4202D0044A1370C4E70023FAE700BF5E
:1005B0006200002061000020600000206400002034
:1005C0005C0000200000002008B51048104B0360BC
:1005D0004FF482734360002383604FF44072C26023
:1005E000036143614FF4007282611822C2610362A9
:1005F000436283620722C26203630823436301F0FC
:10060000FAFB00B908BDFFF7E3FEFBE7640000203A
:100610000030014000B589B0002303930493059393
:10062000069307930268144B9A4202D009B05DF812
:1006300004FB03F560431A6E42F480521A661A6E88
:1006400002F480520192019ADA6C42F00102DA64FB
:10065000DB6C03F001030293029B822303930223CA
:100660000493032306930523079303A94FF09040B7
:1006700000F0F0FCDAE700BF0030014082B00A4B26
:100680001A6E42F001021A661A6E02F0010200921E
:10069000009A9A6D42F080529A659B6D03F08053E8
:1006A0000193019B02B0704700100240FEE7FEE795
:1006B000FEE7FEE7FEE770477047704708B500F0B9
:1006C000A5F808BD08B5024800F0BCFA08BD00BF97
:1006D0003000002008B5024800F0B4FA08BD00BFA1
:1006E00030000020034AD2F8883043F47003C2F887
:1006F0008830704700ED00E0014B1868704700BF7C
:10070000C800002038B504460D46FFF7F5FF236802
:10071000834202D2C21AAA4207D283420BD9C243F1
:10072000D31AAB4204D2002006E02060012003E08F
:100730002060012000E0002038BD00000023172BBE
:100740001CD810B40CE04FF0C00C00EB400402EBDE
:10075000C4020B4C04F802C00133DBB2172B0AD8D9
:100760001A46C3F1180C21FA0CFC1CF0010FEAD058
:100770004FF0FC0CE9E75DF8044B7047704700BF91
:10078000CC00002008B54FF45072024901F0A2FBE2
:1007900008BD00BFCC00002070477047104B1B788D
:1007A0000BB90120704710B504464FF47A70B0FBC6
:1007B000F3F30C4A1068B0FBF3F000F0E3FB68B908
:1007C0000F2C01D901200AE0002221464FF0FF3012
:1007D00000F0C4FB044B1C60002000E0012010BDB1
:1007E00008000020040000200C00002010B50320A9
:1007F00000F0A2FB0F20FFF7D1FF10B1012420462B
:1008000010BD0446FFF73AFFF9E70000034B1B78E1
:10081000034A11680B441360704700BF08000020B2
:100820004C040020014B1868704700BF4C040020A6
:10083000002800F0A18038B5044690F82030D3B1EC
:100840002268136843F001031360FFF7EBFF0546CE
:1008500023685A6812F0010F10D1FFF7E3FF401B25
:100860000A28F5D9636A43F400336362052384F8E8
:100870002030012038BDFFF7CDFCE1E71A6822F0F7
:1008800002021A60FFF7CEFF054623685A6812F08D
:10089000020F0DD0FFF7C6FF401B0A28F5D9636A87
:1008A00043F400336362052384F820300120E1E73C
:1008B000227E012A3DD01A6822F080021A60637EEF
:1008C000012B3BD02268136823F040031360A37E02
:1008D000012B39D02268136823F020031360E37ED4
:1008E000012B37D02268136843F010031360237F75
:1008F000012B35D02268136823F008031360637F4F
:10090000012B33D02268136823F004031360A3681B
:10091000E268134322691343626913436268013A30
:1009200021681343CB6100206062012384F82030EA
:10093000A0E71A6842F080021A60C0E722681368D4
:1009400043F040031360C2E72268136843F02003BA
:100950001360C4E72268136823F010031360C6E72E
:100960002268136843F008031360C8E7226813681D
:1009700043F004031360CAE70120704730B590F8D4
:1009800020C00468A4680CF1FF3C5FFA8CFCBCF149
:10099000010F62D814F0E05F59D0C4F3016C012458
:1009A00004FA0CF41C608B68002B3DD10D68CB68F9
:1009B000046843EA45550CF118031B01E550036830
:1009C0000C690CF1180E03EB0E135C600B7D012B10
:1009D00035D0D17993791B0443EA0163517943EA15
:1009E000012314790168234301EB0C11C1F88C3108
:1009F000D17893781B0443EA0163517843EA0123D9
:100A0000117802680B4302EB0C12C2F888310268BD
:100A10000CF1180C4FEA0C1C52F80C3043F0010397
:100A200042F80C3000201DE04C6843EAC403CC6857
:100A300023430CF11804240105682B51BFE7036818
:100A400003EB0E13596841F480715960C1E7436AA2
:100A500043F400134362012004E0436A43F480231B
:100A60004362012030BD90F82030013BDBB2012B06
:100A700005D9436A43F4802343620120704711F093
:100A8000010F04D00268936843F08003936011F073
:100A9000020F04D00268936843F40043936011F09E
:100AA000040F04D00268936843F4000393600020AD
:100AB000704790F82030013BDBB2012B01D90020B8
:100AC00070470368986810F0806000D001209A6831
:100AD00012F0006F00D001309B6813F0805FEFD000
:100AE0000130704790F820C00CF1FF3C5FFA8CFC9D
:100AF000BCF1010F00F2958030B451B90468E4688C
:100B000014F0030F10D1436A43F400134362012031
:100B100077E00468246914F0030F05D1436A43F4B5
:100B20000013436201206CE001F11B0424010568FD
:100B30002C5904F004049460002C64D101F11B04CE
:100B4000240105682C59640D1460046801F11B0C24
:100B50004FEA0C1C54F80C4004F00204D460046802
:100B60006444646804F00F041461046864446468B5
:100B7000C4F307249461046864446468240C5461D9
:100B8000026802EB0112D2F8B8211A70026802EB77
:100B90000112D2F8B821C2F307225A70026802EBA0
:100BA0000112D2F8B821C2F307429A70026802EB30
:100BB0000112D2F8B821120EDA70026802EB0112AB
:100BC000D2F8BC211A71026802EB0112D2F8BC21E2
:100BD000C2F307225A71026802EB0112D2F8BC215B
:100BE000C2F307429A71026802EB0112D2F8BC21EB
:100BF000120EDA7179B90268D36843F02003D3602A
:100C0000002030BC704701F11B04240105682C59F9
:100C1000E408546099E70268136943F02003136104
:100C2000EEE7436A43F48023436201207047704734
:100C300070477047704770477047704770477047FC
:100C4000704770472DE9F84F054603685C69D3F893
:100C500004809F68D3F80CA0D3F81090D3F818B094
:100C600014F001063BD017F0010616D001229A605D
:100C700017F0020F08D117F0040F0CD117F0080677
:100C800006D04FF4805608E0FFF7D1FF002604E0BD
:100C9000FFF7D0FF01E04FF4006617F4807F0DD01E
:100CA0002B684FF480729A6017F4007F40F09680B2
:100CB00017F4806F00F0968046F4005617F4803FDA
:100CC0000DD02B684FF480329A6017F4003F40F04B
:100CD000938017F4802F00F0938046F4004614F0C0
:100CE000080F07D01AF0100F04D046F400762B68D6
:100CF0001022DA6014F0040F03D01AF0080F40F04D
:100D0000898014F0020F05D02B68DB6813F0030F05
:100D100040F0878014F0400F07D019F0100F04D076
:100D200046F480662B6810221A6114F0200F02D05E
:100D300019F0080F79D114F0100F04D02B681B693B
:100D400013F0030F78D114F4003F02D018F0100F05
:100D500076D114F4803F02D018F0080F77D114F444
:100D6000004F37D018F0040F31D014F4807F04D036
:100D70001BF0010F01D046F0010614F4007F04D0EF
:100D80001BF0020F01D046F0020614F4806F04D06D
:100D90001BF0040F01D046F0040614F4006F16D0C7
:100DA0001BF0700B13D0BBF1400F66D056D8BBF1CF
:100DB000200F5CD0BBF1300F5CD0BBF1100F01D124
:100DC00046F008062A68936923F0700393612B6844
:100DD00004225A60002E56D1BDE8F88F2846FFF74E
:100DE00027FF6BE717F4006F02D046F4804665E7F3
:100DF0002846FFF720FF61E72846FFF71AFF6EE756
:100E000017F4002F02D046F4803668E72846FFF733
:100E100013FF64E72B680822DA602846FFF70DFF0E
:100E20006FE72846FFF7BEFA74E72B6808221A61BD
:100E30002846FFF703FF7EE72846FFF7AEFA82E772
:100E40002B6810225A602846FFF7F9FE81E72B68CD
:100E500008225A602846FFF7F3FE80E7BBF1500FE7
:100E60000ED0BBF1600FADD146F48076AAE746F014
:100E70001006A7E746F02006A4E746F04006A1E7E3
:100E800046F080069EE76B6A33436B622846FFF7A5
:100E9000D8FEA1E790F82030013BDBB2012B05D949
:100EA000436A43F480234362012070470023436276
:100EB00018467047002807DB00F01F024009012395
:100EC0009340024A42F82030704700BF00E100E042
:100ED000002808DB0901C9B200F1604000F561405B
:100EE00080F80013704700F00F000901C9B2014BF0
:100EF0001954704714ED00E000B500F00700C0F190
:100F0000070CBCF1040F28BF4FF0040C031D062B87
:100F10000FD9C31E4FF0FF3E0EFA0CF021EA00017C
:100F200099400EFA03FE22EA0E0241EA02005DF841
:100F300004FB0023EEE70000074AD36823F4E063D4
:100F40001B041B0C000200F4E060034343F0BF638A
:100F500043F40033D360704700ED00E010B5044661
:100F6000054BD868C0F30220FFF7C6FF01462046B4
:100F7000FFF7AEFF10BD00BF00ED00E008B5FFF7C2
:100F800099FF08BD0138B0F1807F0BD24FF0E0230C
:100F90005861054AF02182F8231000209861072249
:100FA0001A6170470120704700ED00E030B4446CD6
:100FB00004F01C0C012404FA0CF4056C6C60046849
:100FC00063608368102B05D0036899600368DA605A
:100FD00030BC704703689A600368D960F8E738B599
:100FE000044690F82400012832D0012084F824001F
:100FF00094F82500C0B2012804D0002384F82430DE
:10100000022038BD022084F825000020E063256816
:10101000286820F0010028602046FFF7C7FF236BF7
:101020005BB12268136843F00E03136022681368F3
:1010300043F0010313600020E3E72268136823F004
:10104000040313602268136843F00A031360EDE79A
:101050000220D6E7F0B583B0002362E085685E0029
:101060000324B44025EA0405CC68B4402C438460D2
:10107000456825EA0C054C68C4F300149C402C43D9
:1010800044605FE0DD08083550F8254003F0070CA8
:101090004FEA8C0C4FF00F0E0EFA0CFE24EA0E0EE7
:1010A0000C6904FA0CF444EA0E0440F8254060E0B0
:1010B000022400E0002404FA0EF42C430CF1020C8C
:1010C0004C4D45F82C404C4CA568D44325EA02060B
:1010D0004F6817F4801F01D042EA0506464DAE6006
:1010E000ED6804EA05064F6817F4001F01D042EAD4
:1010F0000506414DEE606D6804EA05064F6817F479
:10110000003F01D042EA05063B4D6E602D682C4041
:101110004E6816F4803F01D042EA0504364A146056
:1011200001330A6832FA03F462D04FF0010C0CFA72
:1011300003FC1CEA0202F3D04C6804F00304013CF7
:10114000012C8BD94C6804F00304032C0CD0C46828
:101150005D004FF0030C0CFA05FC24EA0C0C8C68C3
:10116000AC4044EA0C04C4604C6804F00304022C54
:1011700088D004684FEA430E4FF0030C0CFA0EFCC3
:1011800024EA0C0C4C6804F0030404FA0EF444EA5C
:101190000C0404604C6814F4403FC1D0174C256E19
:1011A00045F001052566246E04F001040194019CBC
:1011B0004FEA930C0CF102050E4C54F8255003F045
:1011C000030E4FEA8E0E0F2404FA0EF425EA0405EE
:1011D000B0F1904F3FF46EAF094CA04206D004F539
:1011E0008064A0423FF464AF072464E7012462E70F
:1011F00003B0F0BD000001400004014000100240B7
:1012000000040048024B186800F4C060704700BF3B
:1012100000700040B0F5007F0FD01F4B1B6803F437
:10122000C063B3F5806F34D01B4A136823F4C063E6
:1012300043F48063136000207047174B1B6803F46E
:10124000C063B3F5007F20D0134A136823F4C06352
:1012500043F400731360114B1B68322202FB03F34B
:101260000F4AA2FB03239B0C013300E0013B0A4A17
:10127000526912F4806F01D0002BF7D1064B5B69E5
:1012800013F4806F03D100207047002070470320C3
:1012900070470020704700BF00700040040000202D
:1012A00083DE1B4330B583B00446204B9B6D13F0A7
:1012B000805F0BD0FFF7A6FFB0F5007F17D0802C22
:1012C0001FD82DD0702C2DD000211BE0174DAB6DF9
:1012D00043F08053AB65AB6D03F080530193019BEA
:1012E000FFF790FFAB6D23F08053AB65E4E7802CF4
:1012F00003D9A02C03D9022104E0002102E001213E
:1013000000E003210A4A136823F007030B4313602C
:10131000136803F007038B4206D1002003B030BDF1
:101320000221EFE70121EDE70120F7E7001002407D
:1013300000200240284A9368D26802F0030213F0AA
:101340000C030AD00C2B06D0042B1FD0082B20D066
:101350000020024610E0012AF6D11F4A126812F05E
:10136000080F0CD11C4AD2F89420C2F303221B4967
:1013700051F8222043B100200C2B0DD07047164AA3
:101380001268C2F30312F2E71046F5E71448002290
:10139000F2E714480022EFE70F4BDB6803F003038A
:1013A000022B03D0032B02D10E4A00E00C4A0A495B
:1013B000CB68C3F302130133C868C0F3062002FBF5
:1013C00000F0B0FBF3F0CB68C3F3416301335B0083
:1013D000B0FBF3F0D2E700BF00100240702100081C
:1013E0000024F40040787D01002800F01C83F0B553
:1013F00083B00446964B9D6805F00C05DE6806F048
:101400000306036813F0100F5AD0E5B10C2D18D065
:10141000A369002B00F0BB808D4A136843F00103E1
:101420001360FFF7FFF90746894B1B6813F0020FA3
:1014300040F09A80FFF7F6F9C01B0228F4D9032088
:10144000FCE2012EE4D1824B1B6813F0020F03D0A3
:10145000A369002B00F0E982206A7D4B1B6813F022
:10146000080F5BD07A4B1B6803F0F00398425CD8FE
:10147000774B1A6842F008021A601A6822F0F002EC
:10148000216A0A431A605A6822F47F42E16942EAFB
:1014900001225A60002D60D0FFF74CFF6C4B9B6817
:1014A000C3F303136B4AD35C03F01F03D8406A4BAA
:1014B00018606A4B1868FFF771F9002840F0BE8287
:1014C000236813F0010F00F08180082D75D00C2DDA
:1014D00071D06368B3F5803F00F09780B3F5A02F1B
:1014E00000F099805A4B1A6822F480321A601A6808
:1014F00022F480221A606368002B00F09980FFF7C5
:1015000091F90746524B1B6813F4003F5ED1FFF779
:1015100089F9C01B6428F5D903208FE24C4BD3F81E
:1015200094301B0903F0F003A0E7FFF7BBFE00288F
:1015300040F07D82464B1A6842F008021A601A6831
:1015400022F0F002216A0A431A605A6822F47F42AC
:10155000E16942EA01225A609EE7206AFFF7A2FE93
:10156000002899D0012069E2394B1A6842F008023C
:101570001A601A6822F0F002216A0A431A605A6857
:1015800022F47F42E16942EA01225A6098E7304A38
:10159000136823F001031360FFF744F907462C4B4F
:1015A0001B6813F0020F8BD0FFF73CF9C01B022819
:1015B000F5D9032042E2032E8BD1254B1B6813F48F
:1015C000003F03D06368002B00F03382236813F0E0
:1015D000020F58D0042D45D00C2D41D0E368002BCC
:1015E00077D01B4A136843F480731360FFF71AF92E
:1015F0000646174B1B6813F4806F61D1FFF712F991
:10160000801B0228F5D9032018E2114A136843F41D
:10161000803313606FE703F18043A3F53C331A680E
:1016200042F480221A601A6842F480321A6062E73B
:10163000FFF7F8F80746064B1B6813F4003FC5D0C8
:10164000FFF7F0F8C01B6428F5D90320F6E100BFCE
:1016500000100240A0210008040000200C0000201F
:10166000022EBBD1A44B1B6813F4806F03D0E36838
:10167000002B00F0E081A04A536823F0F853216961
:1016800043EA01635360236813F0080F4CD0636989
:101690009BB3994AD2F8943043F00103C2F89430D6
:1016A000FFF7C0F80646944BD3F8943013F0020FBE
:1016B0003AD1FFF7B7F8801B0228F4D90320BDE127
:1016C0008D4A536823F0F853216943EA016353605C
:1016D000D9E7894A136823F480731360FFF7A2F8EF
:1016E0000646854B1B6813F4806FCCD0FFF79AF841
:1016F000801B0228F5D90320A0E17F4AD2F894305C
:1017000023F00103C2F89430FFF78CF806467A4BB9
:10171000D3F8943013F0020F06D0FFF783F8801B44
:101720000228F4D9032089E1236813F0040F7AD04A
:10173000714B9B6D13F0805F36D16F4B9A6D42F009
:1017400080529A659B6D03F080530193019B0126A3
:101750006A4B1B6813F4807F28D0A368012B39D013
:10176000052B3FD0644BD3F8902022F00102C3F840
:101770009020D3F8902022F00402C3F89020A368B0
:10178000002B3DD0FFF74EF807465B4BD3F8903067
:1017900013F0020F46D1FFF745F8C01B41F2883322
:1017A0009842F2D9032049E10026D1E7534A136851
:1017B00043F480731360FFF735F807464F4B1B68FF
:1017C00013F4807FC9D1FFF72DF8C01B0228F5D98B
:1017D000032033E1484AD2F8903043F00103C2F8C5
:1017E0009030CCE7444BD3F8902042F00402C3F889
:1017F0009020D3F8902042F00102C3F89020BEE779
:10180000FFF710F807463C4BD3F8903013F0020F67
:1018100008D0FFF707F8C01B41F288339842F2D98D
:1018200003200BE1E6B9236813F0200F35D0636A7B
:10183000E3B1314AD2F8983043F00103C2F898304E
:10184000FEF7F0FF06462C4BD3F8983013F0020F4A
:1018500023D1FEF7E7FF801B0228F4D90320EDE037
:10186000254A936D23F080539365DCE7224AD2F832
:10187000983023F00103C2F89830FEF7D3FF0646F4
:101880001D4BD3F8983013F0020F06D0FEF7CAFFB5
:10189000801B0228F4D90320D0E0A36A002B00F0BB
:1018A000CC80022B17D00C2D00F0CC80124A13688C
:1018B00023F080731360FEF7B5FF04460E4B1B68E0
:1018C00013F0007F00F0A880FEF7ACFF001B022899
:1018D000F4D90320B2E0084BDB6803F00301E26AAD
:1018E00091420DD00C2D00F0AB80034B1B6813F020
:1018F000806F2FD00120A1E0001002400070004056
:1019000003F07002216B0139B2EB011FEAD103F43D
:10191000FE42616BB2EB012FE4D103F07842A16B80
:10192000B2EBC16FDED103F4C001E26B5208013AA1
:10193000B1EB425FD6D103F0C063226C5208013A8A
:10194000B3EB426FCED1404B1B6813F0007F49D000
:10195000002073E03C4A136823F080731360FEF7A5
:1019600061FF0546384B1B6813F0007F06D0FEF779
:1019700059FF401B0228F5D903205FE0324AD368A3
:1019800032491940E36A206B013843EA0013606B67
:1019900043EA0023E06B4008013843EA4053206CDF
:1019A0004008013843EA4063A06B43EAC06319432F
:1019B000D160136843F080731360D36843F0807381
:1019C000D360FEF72FFF04461F4B1B6813F0007F08
:1019D00006D1FEF727FF001B0228F5D903202DE0D2
:1019E00000202BE0184B1A6842F080721A60DA6807
:1019F00042F08072DA60FEF715FF0446124B1B6856
:101A000013F0007F06D1FEF70DFF031B022BF5D963
:101A1000032013E0002011E00B4AD1680C4B0B406F
:101A2000D36000200AE001207047012006E0012079
:101A300004E0012002E0012000E0002003B0F0BD3E
:101A40000120FBE70120F9E7001002408C809D0196
:101A5000FCFFEEFE002800F0AF8070B50D46044696
:101A6000594B1B6803F007038B420BD2564A13688D
:101A700023F007030B431360136803F007038B4243
:101A800040F09C80236813F0020F0CD0A2684F4BEB
:101A90009B6803F0F0039A4205D94C498B6823F008
:101AA000F0031A438A60236813F0010F39D063688A
:101AB000032B09D0022B26D063BB444A126812F0D4
:101AC000020F06D1012076E0404A126812F0007F32
:101AD00076D03E498A6822F0030213438B60FEF7FA
:101AE000A1FE0646394B9B6803F00C036268B3EB1A
:101AF000820F16D0FEF796FE801B41F28833984283
:101B0000F0D9032057E0314A126812F4003FE0D1C7
:101B1000012050E02D4A126812F4806FD9D10120C3
:101B200049E0236813F0020F0CD0A268274B9B6892
:101B300003F0F0039A4205D224498B6823F0F003A6
:101B40001A438A60204B1B6803F00703AB420AD993
:101B50001D4A136823F007032B431360136803F037
:101B60000703AB422ED1236813F0040F06D0174AA7
:101B7000936823F4E063E1680B439360236813F0F8
:101B8000080F07D0114A936823F46053216943EA90
:101B9000C1039360FFF7CEFB0C4B9B68C3F30313A9
:101BA0000B4AD35C03F01F03D8400A4B18600A4B62
:101BB0001868FEF7F3FD70BD012070470120FAE7B9
:101BC0000120F8E70120F6E7002002400010024063
:101BD000A0210008040000200C0000202DE9F0479F
:101BE00082B00546884617461E46FEF71BFE0A9B36
:101BF0001B1A03EB0609FEF715FE8246284B1B68ED
:101C0000C3F3CB3309FB03F301932B689C6838EAD9
:101C100004040CBF01230023BB423DD0B6F1FF3FBB
:101C2000F3D0FEF7FFFDA0EB0A00484507D2019A6A
:101C300002B14A46019B013B01939146E5E72A68C0
:101C4000536823F0E00353606B68B3F5827F0BD0D9
:101C5000AB6AB3F5005F14D0012385F85D30002333
:101C600085F85C30032018E0AB68B3F5004F02D074
:101C7000B3F5806FECD12A68136823F0400313603A
:101C8000E6E72A68136823F4005313602A68136890
:101C900043F400531360DFE7002002B0BDE8F08793
:101CA000040000202DE9F04782B006460C46154698
:101CB0001F4600238DF80330FEF7B4FD0A9B1B1A64
:101CC00003EB0708FEF7AEFD8146D6F800A0304BC7
:101CD0001B6803EB8303C3EBC3031B0D08FB03F378
:101CE000019302E0B7F1FF3F12D133689B6803EA2A
:101CF000040CAC4547D0B4F5C06FF3D1002DF1D141
:101D00009AF80C30DBB28DF803309DF80330E9E728
:101D1000FEF788FDA0EB0900404507D2019A02B109
:101D20004246019B013B01939046DEE732685368CF
:101D300023F0E00353607368B3F5827F0BD0B36A7E
:101D4000B3F5005F14D0012386F85D30002386F8D8
:101D50005C30032018E0B368B3F5004F02D0B3F550
:101D6000806FECD13268136823F040031360E6E71C
:101D70003268136823F4005313603268136843F425
:101D800000531360DFE7002002B0BDE8F08700BF1A
:101D90000400002070B582B004460D46164600923D
:101DA0000B4600224FF4C051FFF77CFFB0B90096FC
:101DB0002B46002280212046FFF710FFA8B900968D
:101DC0002B4600224FF4C0612046FFF76BFF50B155
:101DD000236E43F020032366032004E0236E43F0C8
:101DE00020032366032002B070BD236E43F020035E
:101DF00023660320F7E700286AD010B50446436A3B
:101E000033B94368B3F5827F05D00023C36102E094
:101E10000023036143610023A36294F85D30002B2B
:101E20004DD0022384F85D302268136823F040030C
:101E30001360E368B3F5E06F47D90022B3F5706F24
:101E400004D0B3F5E06F01D00023A362636803F40C
:101E50008273A16801F404410B43216901F002017E
:101E60000B43616901F001010B43A16901F40071A9
:101E70000B43E16901F038010B43216A01F0800155
:101E80000B43A16A01F4005120680B430360638B8C
:101E900003F00403616A01F010010B43616B01F070
:101EA00008010B43E16801F470610B43216813439F
:101EB0004B6000202066012384F85D3010BD84F85B
:101EC0005C302046FEF7A6FBABE74FF48052B5E747
:101ED0000120704738B590F85C30012B00F08C8001
:101EE0000446012380F85C3090F85D50EDB29D42CD
:101EF0007CD100297BD0002A79D0032380F85D3083
:101F00000023036681638287C28703640365C36419
:101F1000A0F84430A0F846308368B3F5004F39D0BC
:101F2000636D364A1A63636D354ADA62636D354A0A
:101F30005A63636D00229A632268536823F48043D6
:101F40005360E368B3F5E06F04D8636D9B69B3F544
:101F5000806F2AD02268E38F9BB20C32A16B606D38
:101F6000FFF73DF80146002838D123681A6812F0BF
:101F7000400F03D11A6842F040021A602268536889
:101F800043F0200353602268536843F00203536018
:101F90000D462CE00268136823F0400313600268CA
:101FA000136843F480431360BAE7E38F13F0010F23
:101FB00009D12268536823F480435360E38FC3F34D
:101FC0004E03E387C6E72268536843F480435360B7
:101FD000E38FC3F34E030133E387BBE7236E43F084
:101FE00010032366012384F85D3000E002250023FE
:101FF00084F85C30284638BD0225FBE7092000083C
:10200000372000081520000808B5806AFEF7C4FBD9
:1020100008BD704708B5806A0268536823F003035F
:102020005360036E43F010030366012380F85D30B4
:10203000FFF7EFFF08BD30B583B00546846AFEF7B1
:10204000F1FB2B681B6813F0200F23D10246216897
:102050004B6823F020034B6021684B6823F0020398
:102060004B6064212046FFF795FE18B1236E43F0C4
:1020700020032366A36833B901932368DA680192C9
:102080009B680193019B0023E387012384F85D3063
:10209000236E23B92046FEF780FB03B030BD2046F7
:1020A000FFF7B7FFF9E70000DFF834D0FEF71AFBBF
:1020B0000C480D490D4A002302E0D458C4500433A3
:1020C000C4188C42F9D30A4A0A4C002301E0136079
:1020D0000432A242FBD300F019F8FEF7B9F9FEE78B
:1020E000000001200000002010000020C021000896
:1020F0001000002050040020FEE7024403469342F3
:1021000000D1704703F8011BF9E7000070B50D4DD1
:102110000D4C641BA4100026A64209D10B4D0C4C9B
:1021200000F018F8641BA4100026A64205D170BD6B
:1021300055F8043B98470136EEE755F8043B9847BD
:102140000136F2E7B0210008B0210008B0210008F4
:10215000B4210008F8B500BFF8BC08BC9E46704723
:10216000F8B500BFF8BC08BC9E46704700000000F0
:10217000A0860100400D0300801A060000350C0007
:1021800040420F0080841E0000093D0000127A00CA
:102190000024F40000366E010048E801006CDC0207
:1021A0000000000000000000010203040607080907
:0821B000B50100080000000069
:0821B800910100080000000085
:1021C0000100000000093D000100000010000000B7
:04000005080020A926
:00000001FF
